:100000000C9478000C9495000C9495000C94950039
:100010000C9495000C9495000C9495000C9495000C
:100020000C9495000C9449020C9495000C94950046
:100030000C9495000C9495000C9495000C949500EC
:100040000C9495000C9495000C9495000C949500DC
:100050000C9495000C9495000C9495000C946302FC
:100060000C9495000C9495000C9495000C949500BC
:100070000C9495000C9495000C9495000C949500AC
:100080000C9495000C9495000C9495000C9495009C
:100090000C947A020C9495000C9495000C949500A5
:1000A0000C9495000C9495000C949500C902CE0216
:1000B000D302D802DD02E202E7021104EC02F102EF
:1000C000F602FB02110411041104110411041104BD
:1000D00011041104110411041104FE02F8060007B2
:1000E0002E07080710072E07180720072E072707D7
:1000F00011241FBECFEFDAE0DEBFCDBF13E0A0E0DA
:10010000B1E0E0E2F4E102C005900D92A231B10746
:10011000D9F726E0A2E1B3E001C01D92A034B207F6
:10012000E1F70E94E9050C940E0A0C940000862762
:1001300098E067E0880F08F486279A95D9F7089524
:100140002AB1242B2AB92BB1342F309523233BB16C
:10015000432B3FB7F894FC01680F791FE617F707A8
:10016000C1F0819198E04BB9000000C087FF2BB926
:10017000880F000000C000C000C02BB900C000C044
:1001800000C000C000C000C000C000C09A9559F770
:10019000E5CF3FBF08959B01220F331F620F731FEE
:1001A0000E94A0008FEA94E00197F1F700C00000E0
:1001B000089540E20C94CB0040E20C94A00027E0AC
:1001C00030E090E05C98E7ECF0E03197F1F700C0A8
:1001D0000000AC01022E02C0559547950A94E2F743
:1001E000BA016170772740FD06C0E7ECF0E0319777
:1001F000F1F700C000005C9AE7ECF0E03197F1F70E
:1002000000C00000672B31F0E7ECF0E03197F1F728
:1002100000C0000021503109A8F65C9887EC90E0FE
:100220000197F1F700C000005C9AE7ECF0E031972D
:10023000F1F700C0000008955C988FED9EE20197F1
:10024000F1F700C000005C9A8FED91E00197F1F7A3
:1002500000C000005C988FEC97E00197F1F700C0B8
:1002600000005C9A9AE19A95F1F700C08FE18093C3
:100270000803809307030895AC015C98E1E0F0E087
:100280002A9895B18FEF860F9F0102C0220F331F6E
:100290008A95E2F724233523232B11F420E001C0B3
:1002A00024E0922B95B9299882E08A95F1F700C055
:1002B000299A82E08A95F1F700C0615009F72A98DF
:1002C0005C9A82E08A95F1F700C00895CF93DF939E
:1002D0005C9A2AE12A95F1F700C0C0E0D1E083E002
:1002E000C630D807A1F0899199918F3F2FEF9207DF
:1002F00051F48FEF91EE24E0815090402040E1F7DF
:1003000000C00000ECCF69E00E943C01E8CFDF9123
:10031000CF91089590917A00976090937A0090E43D
:1003200090937B0090937C00883028F088509091C7
:100330007B00906203C090917B009F7D90937B0037
:1003400090917C008770892B80937C0080917A004B
:10035000806880937A008FE39FE10197F1F700C0F6
:10036000000080917A00806480937A0080917A0006
:1003700086FDFCCF809178002091790090E0922B4F
:1003800008958EE580937C0080917A008068809348
:100390007A0080917B008F7D80937B008FE39FE1CB
:1003A0000197F1F700C0000080917A00806480938B
:1003B0007A0080917A0086FDFCCF80917A0080647B
:1003C00080937A0080917A0086FDFCCF209178009E
:1003D0008091790030E0382B032E000C440B550B34
:1003E00064EB7BE281E190E00E94A608C9010895D8
:1003F00087EC80937C0080E280937B0080917A0080
:10040000877D80937A0080917A00806880937A005B
:100410008FE39FE10197F1F700C0000080917A001F
:10042000806480937A0080917A0086FDFCCF809171
:100430007A00806480937A0080917A0086FDFCCFF8
:10044000809178002091790090E0922B0895CF93CD
:10045000DF9300D0CDB7DEB720913C0630913D064A
:100460002115310511F420E436E0CE010196821BFE
:10047000930B0F900F90DF91CF910895F894880F10
:100480008093BA0085EC8093BC008FEF80932503A6
:1004900008951F920F920FB60F9211248F939F937E
:1004A00078941C9909C080912406909125060196A4
:1004B00090932506809324069F918F910F900FBEF5
:1004C0000F901F9018951F920F920FB60F92112444
:1004D0008F939F9380913606909137060196909363
:1004E0003706809336069F918F910F900FBE0F9025
:1004F0001F9018951F920F920FB60F9211242F93F1
:100500003F934F935F936F937F938F939F93AF939B
:10051000BF93CF93EF93FF938091B900887F80388A
:10052000A9F068F4882309F4D6C2803609F0D5C250
:1005300085EC8093BC008FEF80932503D1C2883A6D
:1005400009F482C1883B09F47FC1C7C280912503A9
:100550008F3F09F05CC06091BB00609309038091FC
:100560000A03882329F080E00E94970080932603E5
:100570001092250310921603E09109038E2F90E04C
:100580008831910508F04DC1FC01EA5AFF4F0C94E7
:10059000C508809138069091390634C080911E03B9
:1005A00090911F032FC080913306909134062AC08A
:1005B000809123039091240325C080913A06909165
:1005C0003B0620C080912F06909130061BC0809181
:1005D000290690912A0616C0809127069091280638
:1005E00011C080911C0390911D030CC080912103C8
:1005F0009091220307C00E94270204C080912B061D
:1006000090912C0690931503809314030AC18111D5
:1006100012C08091BB0080932606909109039E3FF3
:1006200011F480930A036091BB00809126030E941D
:1006300097008093260390910A03809125039923C4
:1006400051F0813009F0E3C09091BB008091260306
:100650009813DDC002C08111DAC080910903873888
:1006600029F48091260680930703D6C08839D9F4EF
:1006700081E080931B03C091260669E0CF3F61F4BF
:1006800089E290E00E943C0169E083E190E00E94F1
:100690003C01C0930B03C0C088E290E00E943C0183
:1006A00010920B03B9C08939A9F481E080931B0330
:1006B0008091260669E08F3F19F483E290E007C03D
:1006C000811103C082E290E002C083E190E00E94C9
:1006D0003C01A2C08D3841F4809126068F3F11F471
:1006E000469A9AC0469898C08E3841F48091260662
:1006F0008F3F11F45F9A90C05F988EC08F3841F49D
:10070000809126068F3F11F42E9A86C02E9884C0C1
:10071000803941F4809126068F3F11F4479A7CC0BE
:1007200047987AC0813941F480912606811102C030
:10073000729A72C0729870C0823989F480912606CC
:100740008F3F11F42D9A68C0813029F42D9A82E0F0
:100750008093260661C02D98109226065DC08339CD
:1007600041F48091260687BD80912606809306037A
:1007700053C0843979F48091180390E0FC01EE0FA6
:10078000FF1F8E0F9F1FFC01E95DFC4F8091260625
:10079000818321C0853979F48091180390E0FC01B0
:1007A000EE0FFF1F8E0F9F1FFC01E95DFC4F809134
:1007B0002606808310C0863991F48091180390E05A
:1007C000FC01EE0FFF1F8E0F9F1FFC01E95DFC4F28
:1007D00080912606828381E0809320031DC08D3F97
:1007E00041F4809126068F3FB9F481E080931A038B
:1007F00013C0813A29F480912606809318030CC017
:10080000803A29F4809126068093190305C08091CF
:1008100016038F5F80931603809125038F5F80936B
:10082000250385EC8093BC0080910903823909F08F
:1008300057C180912606823009F052C185E88A9519
:10084000F1F700002D984CC180910903843109F41F
:100850006DC010F58D3009F4C3C058F49091250394
:10086000873009F40EC108F470C08C3008F082C0E3
:100870006CC0803109F4C9C038F48E3009F4B7C0B7
:100880008F3009F4BBC01AC190912503823109F45D
:10089000D5C008F4C1C0DBC08E3709F4DCC098F4C1
:1008A000873109F452C038F4853109F444C08631E7
:1008B00009F446C003C1803209F1813281F18831E7
:1008C00009F0FCC014C0873940F48D3850F48F37DC
:1008D00009F4CAC0873829F0F1C0805A823008F084
:1008E000EDC0809126038093BB008FEF15C08091EF
:1008F00025038111BFC080910B0306C080912503A1
:100900008111B8C0809119038093BB006091BB0036
:10091000809126030E94970080932603D2C0809185
:1009200025038111A7C080911803EECF8091250384
:100930008111A0C021C08091250381119BC02BC0D3
:1009400080912503811196C035C0809125038111C6
:1009500003C080911403D8CF813019F4809115031E
:10096000D3CF90910A03992309F49FC0823009F0F4
:100970009CC098C091110DC08091180390E0FC01BB
:10098000EE0FFF1F8E0F9F1FFC01E95DFC4F818161
:10099000BBCF913069F48091180390E0FC01EE0F19
:1009A000FF1F8E0F9F1FFC01E95DFC4F8081ACCFC4
:1009B000923069F48091180390E0FC01EE0FFF1F64
:1009C0008E0F9F1FFC01E95DFC4F82819DCF8091BE
:1009D0000A03882309F469C0933009F066C062C035
:1009E00080912503811146C0369B2EC02BC080917B
:1009F000250381113FC04F9B27C024C08091250350
:100A0000811138C01E9B20C01DC08091250381111B
:100A100031C0379B19C016C0911103C0629B12C030
:100A200013C080910A03882311F09130D9F18FEF20
:100A30008093BB008EEF809325033AC091112CC0A8
:100A40001D9B02C08FEF60CF1092BB005FCF911152
:100A500023C087B559CF8091250390910A03811156
:100A60000BC09093BB0052CF80912503811102C02F
:100A700081E04ACF90910A039923B9F08130A9F41B
:100A800011C0911109C0809108038093BB0080912F
:100A90000A038823B1F03ACF80910A03882329F012
:100AA000913019F4809126030AC08FEF8093BB0028
:100AB000809116038F5F8093160303C08FEF80939E
:100AC000BB0085E38A95F1F70000809125038F5FD5
:100AD0008093250302C085ED01C085EC8093BC00A6
:100AE000FF91EF91CF91BF91AF919F918F917F91A6
:100AF0006F915F914F913F912F910F900FBE0F908B
:100B00001F901895CF93DF9381E08093E00090E2EF
:100B10009093D80010BA9BEB9AB91BB81DB86A9A8B
:100B200096EE94B990EC97B917BC85BD83E884BD67
:100B3000EEE6F0E080818160808390E080E80FB68F
:100B4000F89480936100909361000FBE2FEF81EEC7
:100B500094E0215080409040E1F700C000008AE21C
:100B60000E943E02E8E6F0E0808181608083EBE64F
:100B7000F0E08081806180837894C7E2D3E08FEFDA
:100B8000898388838A838C838B838D8362E070E082
:100B9000CE010E94D9000E9466010E941C011982A8
:100BA00018821A821C821B821D8262E070E0CE01D4
:100BB0000E94D90082ED87BD99E288E10FB6F894D2
:100BC000A895809360000FBE90936000DF91CF9155
:100BD00008950E94820510E001EDEE24E39430E2D6
:100BE000D32EFF24FA944EE1C42EC0E0D4E08091CD
:100BF0001A03882309F43FC00093BC00F8940FB691
:100C0000F894A895809160008861809360001092AC
:100C100060000FBEE092E000D092D8001092C900B0
:100C20002FEF80E792E0215080409040E1F700C034
:100C300000001DBA109268001CBC10BE1FBA1092B2
:100C40007A0010926E0010926F0010927100109254
:100C500072001092C9001092BC0014B817B81AB8EC
:100C60001DB810BA1092BC0015B818B81BB81EB841
:100C700011BA0C94003880911903813079F5489BA2
:100C80000AC080911203909113030196909313036D
:100C90008093120310C0109213031092120310924B
:100CA0002803109227031092290361E070E087E285
:100CB00093E00E94D9008091120390911303813137
:100CC000974260F0F0922803F092270310922903D4
:100CD00061E070E087E293E00E94D900499905C085
:100CE000809116038F5F8093160380911603893CD1
:100CF00040F00093BC008AE20E943E02109216036C
:100D00007894A895809136069091370683319A475A
:100D100048F12091240630912506C29EC001C39E51
:100D2000900D112490932806809327061092250693
:100D30001092240610923706109236062091060370
:100D40002E3F81F48F39974018F087B58F5F87BDAC
:100D500080912706909128068830974018F487B52F
:100D6000815087BD80911B03882321F00E941C01C4
:100D700010921B0380912003882359F0609118037F
:100D800070E06F5F7F4F87E293E00E94D90010927E
:100D900020039091070380910803981789F09032FF
:100DA00078F4981710F4815001C08F5F8093080386
:100DB00088E50E94DF00809108038F710E94DF00A8
:100DC0001A3068F41F5F812F90E0FC013197EA3000
:100DD000F10508F043C0E259FF4F0C94C50887E0C5
:100DE0000E948A01909339068093380610E0FFCE66
:100DF00086E00E948A0190931F0380931E03F7CE22
:100E000085E00E948A019093340680933306EFCEEA
:100E100084E00E948A019093240380932303E7CE09
:100E200081E00E948A0190933B0680933A06DFCED0
:100E300080E00E948A019093300680932F06D7CEDF
:100E40000E94C10190931D0380931C03D0CE0E9489
:100E5000F8019093220380932103C9CE89E00E9478
:100E60008A0190932A068093290620912D063091BD
:100E70002E062817390720F490932E0680932D060E
:100E800020913106309132068217930720F4909317
:100E9000320680933106809117038F5F809317038A
:100EA0008D3308F4A4CE60912D0670912E068091AA
:100EB000310690913206860F971F96958795681B8D
:100EC000790B80E090E00E94AB0724EF3DEF44E314
:100ED0005FE30E9411080E947C0770932C066093C8
:100EE0002B06D0933206C093310610922E06109234
:100EF0002D06109217037BCE0E94F00788F09F57B3
:100F000098F0B92F9927B751B0F0E1F0660F771F2D
:100F1000881F991F1AF0BA95C9F714C0B13091F023
:100F20000E940A08B1E008950C940A08672F782FF0
:100F30008827B85F39F0B93FCCF3869577956795E8
:100F4000B395D9F73EF490958095709561957F4F54
:100F50008F4F9F4F0895E89409C097FB3EF49095FA
:100F60008095709561957F4F8F4F9F4F9923A9F082
:100F7000F92F96E9BB279395F69587957795679511
:100F8000B795F111F8CFFAF4BB0F11F460FF1BC055
:100F90006F5F7F4F8F4F9F4F16C0882311F096E9E8
:100FA00011C0772321F09EE8872F762F05C0662396
:100FB00071F096E8862F70E060E02AF09A95660F4F
:100FC000771F881FDAF7880F9695879597F9089508
:100FD00057FD9058440F551F59F05F3F71F04795EA
:100FE000880F97FB991F61F09F3F79F087950895CF
:100FF000121613061406551FF2CF4695F1DF08C0EE
:10100000161617061806991FF1CF8695710561050A
:1010100008940895E894BB2766277727CB0197F9B2
:1010200008950E9424080C9495080E94870838F0BF
:101030000E948E0820F0952311F00C947E080C94E9
:10104000840811240C940B080E94E80770F3959F04
:10105000C1F3950F50E0551F629FF001729FBB27AF
:10106000F00DB11D639FAA27F00DB11DAA1F649F4B
:101070006627B00DA11D661F829F2227B00DA11DFE
:10108000621F739FB00DA11D621F839FA00D611D84
:10109000221F749F3327A00D611D231F849F600DA5
:1010A000211D822F762F6A2F11249F5750409AF0CE
:1010B000F1F088234AF0EE0FFF1FBB1F661F771F5A
:1010C000881F91505040A9F79E3F510580F00C9425
:1010D0007E080C940B085F3FE4F3983ED4F38695AA
:1010E00077956795B795F795E7959F5FC1F7FE2BC5
:1010F000880F911D9695879597F9089597F99F67A1
:1011000080E870E060E008959FEF80EC089500248F
:101110000A941616170618060906089500240A945C
:1011200012161306140605060895092E0394000CE2
:1011300011F4882352F0BB0F40F4BF2B11F460FF71
:1011400004C06F5F7F4F8F4F9F4F0895052E97FB11
:101150001EF400940E94BD0857FD07D00E94CB08E2
:1011600007FC03D04EF40C94BD0850954095309583
:1011700021953F4F4F4F5F4F089590958095709503
:1011800061957F4F8F4F9F4F0895EE0FFF1F059082
:10119000F491E02D0994A1E21A2EAA1BBB1BFD01BC
:1011A0000DC0AA1FBB1FEE1FFF1FA217B307E40746
:1011B000F50720F0A21BB30BE40BF50B661F771F9E
:1011C000881F991F1A9469F760957095809590957E
:1011D0009B01AC01BD01CF0108950F931F93CF93E5
:1011E000DF938230910510F482E090E0E0913E06BA
:1011F000F0913F0620E030E0A0E0B0E0309719F138
:10120000408151810281138148175907C8F0841722
:10121000950769F4109731F012960C931297139674
:101220001C9327C000933E0610933F0622C0211551
:10123000310519F04217530718F49A01BD01EF0167
:10124000DF01F801DBCF21153105F9F0281B390B3F
:101250002430310580F48A819B816115710521F06C
:10126000FB019383828304C090933F0680933E06E4
:10127000FE01329644C0FE01E20FF31F8193919369
:1012800022503109398328833AC020913C0630919D
:101290003D06232B41F420910E0330910F03309330
:1012A0003D0620933C0620910C0330910D0321153F
:1012B000310541F42DB73EB7409110035091110311
:1012C000241B350BE0913C06F0913D06E217F30735
:1012D000A0F42E1B3F0B2817390778F0AC014E5FA6
:1012E0005F4F2417350748F04E0F5F1F50933D06A0
:1012F00040933C068193919302C0E0E0F0E0CF017F
:10130000DF91CF911F910F910895CF93DF930097B5
:1013100009F481C0FC01329713821282A0913E062B
:10132000B0913F06109781F420813181820F931F85
:1013300020913C0630913D062817390751F5F0936E
:101340003D06E0933C0667C0ED0120E030E0CE179B
:10135000DF0740F44A815B819E0141155105F1F0A0
:10136000EA01F5CFD383C28340815181840F951F59
:10137000C817D90759F488819981840F951F02965F
:10138000918380838A819B81938382832115310598
:1013900029F4F0933F06E0933E063DC0E901FB834C
:1013A000EA8349915991C40FD51FEC17FD0761F4E9
:1013B00080819181840F951F0296E901998388832A
:1013C000828193819B838A83E0E0F0E012968D9185
:1013D0009C911397009719F0FD01DC01F7CF8D91D7
:1013E0009C9111979D012E5F3F4F820F931F20917B
:1013F0003C0630913D062817390769F4309729F4E7
:1014000010923F0610923E0602C013821282B093E1
:101410003D06A0933C06DF91CF910895F894FFCF4D
:10142000FF00FF01980106010401010108001001FD
:1014300021000D01300002013100000140001001C7
:10144000410055014200020143008401440084012F
:1014500050007801510078015200000153007701DB
:10146000570060016000070161000001620008018F
:1014700063000001A0000001A1000701A2000C010F
:10148000A3000B01A4000301A5000701A6000601AB
:10149000A7000401A8000801A9000C01AA0013017B
:1014A000AB000601AC000D01AD001901AE0010014A
:1014B000AF000001C0000001C1000701C2000C0123
:1014C000C3000B01C4000301C5000701C6000701EA
:1014D000C7000401C8000801C9000C01CA001301BB
:1014E000CB000601CC000D01CD001801CE0010018B
:1014F000CF000001FF00FF01980106010401060171
:101500000000200101000A010200000103000001A7
:101510000400010105000101060098010700060111
:1015200008000101090080010A0000010B00000110
:101530000C0001010D0001010E0000010F0000016F
:101540001000F0011100F40112000101130000016C
:10155000140000011500C001160008011700000169
:1015600018000001190000011A0000011B00000111
:101570001C0000011D0000012000010121002301C9
:1015800022004501230067012400010125002301F9
:1015900026004501270067013000110131001101CB
:1015A000320000013300EE013400FF013500BB01C1
:1015B0003600AA013700DD013800CC013900660190
:1015C0003A0077013B0022013C0022013D0022014C
:1015D0003E0022013F002201400022015200100182
:1015E0005300100154001301FF00FF019801060190
:1015F0000401070118001D011700220102007701F4
:101600002600B201E1007901FF00FF019801060107
:10161000040100013A0060013500000111000001E1
:10162000FFFF29000001FE1F1FFFFFFF0000400613
:02163000200098
:00000001FF
