:100000000C9478000C9495000C9495000C94950039
:100010000C9495000C9495000C9495000C9495000C
:100020000C9495000C9449020C9495000C94950046
:100030000C9495000C9495000C9495000C949500EC
:100040000C9495000C9495000C9495000C949500DC
:100050000C9495000C9495000C9495000C946302FC
:100060000C9495000C9495000C9495000C949500BC
:100070000C9495000C9495000C9495000C949500AC
:100080000C9495000C9495000C9495000C9495009C
:100090000C947A020C9495000C9495000C949500A5
:1000A0000C9495000C9495000C949500C902CE0216
:1000B000D302D802DD02E202E7020C04EC02F102F4
:1000C000F602FB020C040C040C040C040C040C04DB
:1000D0000C040C040C040C040C04FE02A006A8067C
:1000E000D606B006B806D606C006C806D606CF069F
:1000F00011241FBECFEFDAE0DEBFCDBF13E0A0E0DA
:10010000B1E0E0E7F3E102C005900D92AE30B10737
:10011000D9F726E0AEE0B3E001C01D92AC33B207E0
:10012000E1F70E94D1050C94B6090C9400008627D3
:1001300098E067E0880F08F486279A95D9F7089524
:100140002AB1242B2AB92BB1342F309523233BB16C
:10015000432B3FB7F894FC01680F791FE617F707A8
:10016000C1F0819198E04BB9000000C087FF2BB926
:10017000880F000000C000C000C02BB900C000C044
:1001800000C000C000C000C000C000C09A9559F770
:10019000E5CF3FBF08959B01220F331F620F731FEE
:1001A0000E94A0008FEA94E00197F1F700C00000E0
:1001B000089540E20C94CB0040E20C94A00027E0AC
:1001C00030E090E05C98E7ECF0E03197F1F700C0A8
:1001D0000000AC01022E02C0559547950A94E2F743
:1001E000BA016170772740FD06C0E7ECF0E0319777
:1001F000F1F700C000005C9AE7ECF0E03197F1F70E
:1002000000C00000672B31F0E7ECF0E03197F1F728
:1002100000C0000021503109A8F65C9887EC90E0FE
:100220000197F1F700C000005C9AE7ECF0E031972D
:10023000F1F700C0000008955C988FED9EE20197F1
:10024000F1F700C000005C9A8FED91E00197F1F7A3
:1002500000C000005C988FEC97E00197F1F700C0B8
:1002600000005C9A9AE19A95F1F700C08FE18093C3
:100270000403809303030895AC015C98E1E0F0E08F
:100280002A9895B18FEF860F9F0102C0220F331F6E
:100290008A95E2F724233523232B11F420E001C0B3
:1002A00024E0922B95B9299882E08A95F1F700C055
:1002B000299A82E08A95F1F700C0615009F72A98DF
:1002C0005C9A82E08A95F1F700C00895CF93DF939E
:1002D0005C9A2AE12A95F1F700C0C0E0D1E083E002
:1002E000C230D807A1F0899199918F3F2FEF9207E3
:1002F00051F48FEF91EE24E0815090402040E1F7DF
:1003000000C00000ECCF69E00E943C01E8CFDF9123
:10031000CF91089590917A00976090937A0090E43D
:1003200090937B0090937C00883028F088509091C7
:100330007B00906203C090917B009F7D90937B0037
:1003400090917C008770892B80937C0080917A004B
:10035000806880937A008FE39FE10197F1F700C0F6
:10036000000080917A00806480937A0080917A0006
:1003700086FDFCCF809178002091790090E0922B4F
:1003800008958EE580937C0080917A008068809348
:100390007A0080917B008F7D80937B008FE39FE1CB
:1003A0000197F1F700C0000080917A00806480938B
:1003B0007A0080917A0086FDFCCF80917A0080647B
:1003C00080937A0080917A0086FDFCCF209178009E
:1003D0008091790030E0382B032E000C440B550B34
:1003E00064EB7BE281E190E00E944E08C901089530
:1003F00087EC80937C0080E280937B0080917A0080
:10040000877D80937A0080917A00806880937A005B
:100410008FE39FE10197F1F700C0000080917A001F
:10042000806480937A0080917A0086FDFCCF809171
:100430007A00806480937A0080917A0086FDFCCFF8
:10044000809178002091790090E0922B0895CF93CD
:10045000DF9300D0CDB7DEB7209138063091390652
:100460002115310511F42CE336E0CE010196821BF3
:10047000930B0F900F90DF91CF910895F894880F10
:100480008093BA0085EC8093BC008FEF80932103AA
:1004900008951F920F920FB60F9211248F939F937E
:1004A00078941C9909C080912006909121060196AC
:1004B00090932106809320069F918F910F900FBEFD
:1004C0000F901F9018951F920F920FB60F92112444
:1004D0008F939F938091320690913306019690936B
:1004E0003306809332069F918F910F900FBE0F902D
:1004F0001F9018951F920F920FB60F9211242F93F1
:100500003F934F935F936F937F938F939F93AF939B
:10051000BF93CF93EF93FF938091B900887F80388A
:10052000A9F068F4882309F4CCC2803609F0CBC264
:1005300085EC8093BC008FEF80932103C7C2883A7B
:1005400009F47DC1883B09F47AC1BDC280912103C1
:100550008F3F09F05CC06091BB0060930503809100
:100560000603882329F080E00E94970080932203ED
:100570001092210310921203E09105038E2F90E058
:100580008831910508F048C1FC01EA5AFF4F0C94EC
:100590006D08809134069091350634C080911A031D
:1005A00090911B032FC080912F06909130062AC096
:1005B00080911F039091200325C080913606909171
:1005C000370620C080912B0690912C061BC080918D
:1005D00025069091260616C0809123069091240648
:1005E00011C080911803909119030CC080911D03D4
:1005F00090911E0307C00E94270204C08091270625
:1006000090912806909311038093100305C18111E6
:1006100012C08091BB0080932206909105039E3FFB
:1006200011F4809306036091BB00809122030E9425
:1006300097008093220390910603809121039923D0
:1006400051F0813009F0DEC09091BB00809122030F
:100650009813D8C002C08111D5C080910503873896
:1006600029F48091220680930303D1C08839D9F4FC
:1006700081E080931703C091220669E0CF3F61F4C7
:1006800089E290E00E943C0169E083E190E00E94F1
:100690003C01C0930703BBC088E290E00E943C018C
:1006A00010920703B4C0893981F481E08093170365
:1006B0008091220669E08F3F19F483E290E002C046
:1006C00082E290E00E943C01A2C08D3841F480910A
:1006D00022068F3F11F4469A9AC0469898C08E38E9
:1006E00041F4809122068F3F11F45F9A90C05F9889
:1006F0008EC08F3841F4809122068F3F11F42E9ADC
:1007000086C02E9884C0803941F4809122068F3FA4
:1007100011F4479A7CC047987AC0813941F480919E
:100720002206811102C0729A72C0729870C082391A
:1007300089F4809122068F3F11F42D9A68C0813090
:1007400029F42D9A82E08093220661C02D981092A0
:1007500022065DC0833941F48091220687BD8091D5
:1007600022068093020353C0843979F480911403E4
:1007700090E0FC01EE0FFF1F8E0F9F1FFC01ED5D4F
:10078000FC4F80912206818321C0853979F48091C4
:10079000140390E0FC01EE0FFF1F8E0F9F1FFC0162
:1007A000ED5DFC4F80912206808310C0863991F464
:1007B0008091140390E0FC01EE0FFF1F8E0F9F1F2E
:1007C000FC01ED5DFC4F80912206828381E08093E5
:1007D0001C031DC08D3F41F4809122068F3FB9F468
:1007E00081E08093160313C0813A29F48091220698
:1007F000809314030CC0803A29F4809122068093E0
:10080000150305C0809112038F5F809312038091BE
:1008100021038F5F8093210385EC8093BC0080913E
:100820000503823909F052C180912206823009F015
:100830004DC185E88A95F1F700002D9847C1809158
:100840000503833109F400C1D8F48C3009F487C062
:1008500020F4873009F40DC16DC08F3009F4C5C094
:1008600038F48D3009F4B3C08E3009F4B7C020C11C
:1008700090912103813109F4C4C008F4BDC0D4C0F3
:10088000803289F188F4863109F44FC038F484311C
:1008900009F441C0853109F443C00AC1873109F424
:1008A00049C08831C9F004C18F3709F4DCC030F485
:1008B000813251F18E3709F4CDC0FAC0873831F05A
:1008C00008F4F6C08D588A3008F0F2C080912203F7
:1008D0008093BB008FEF15C0809121038111D6C09A
:1008E0008091070306C0809121038111CFC08091C0
:1008F00015038093BB006091BB00809122030E948E
:10090000970080932203D7C0809121038111BEC03C
:1009100080911403EECF809121038111B7C023C0D1
:10092000809121038111B2C02DC0809121038111DA
:10093000ADC037C080912103811103C080911003A5
:10094000D8CF813019F480911103D3CF9091060351
:10095000992309F4A4C0823009F0A1C09DC0809100
:10096000210381110DC08091140390E0FC01EE0F72
:10097000FF1F8E0F9F1FFC01ED5DFC4F8181B9CFE2
:10098000813069F48091140390E0FC01EE0FFF1FA9
:100990008E0F9F1FFC01ED5DFC4F8081AACF82303E
:1009A00069F48091140390E0FC01EE0FFF1F8E0F9D
:1009B0009F1FFC01ED5DFC4F82819BCF9091060350
:1009C000992309F46CC0833009F069C065C0809137
:1009D000210381115BC0369B2DC02AC08091210369
:1009E000811154C04F9B26C023C0809121038111E7
:1009F0004DC01E9B1FC01CC091111FC0379B1AC049
:100A000017C0911103C0629B13C014C080910603EC
:100A1000882319F0913009F43FC08FEF8093BB0019
:100A20008EEF809321033EC0911107C01D9B02C031
:100A30008FEF5FCF1092BB005ECF809106038823BB
:100A400071F1913061F528C08091210381111EC0A0
:100A500087B54FCF8091210390910603811118C073
:100A60009093BB0048CF8091210381110FC081E09A
:100A700040CF80912103811109C0809104038093AC
:100A8000BB00809106038823B1F035CF9091060317
:100A9000992329F0813019F4809122030AC08FEF45
:100AA0008093BB00809112038F5F8093120303C079
:100AB0008FEF8093BB00809121038F5F8093210390
:100AC00002C085ED01C085EC8093BC00FF91EF91E1
:100AD000CF91BF91AF919F918F917F916F915F91D6
:100AE0004F913F912F910F900FBE0F901F9018952F
:100AF000CF93DF9310BA88EB8AB91BB81DB86A9AF6
:100B000086EE84B980EC87B917BC81E085BD83E8A7
:100B100084BDEEE6F0E080818160808390E080E833
:100B20000FB6F89480936100909361000FBE8AE243
:100B30000E943E02E8E6F0E0808181608083EBE67F
:100B4000F0E08081806180837894C3E2D3E08FEF0E
:100B5000898388838A838C838B838D8362E070E0B2
:100B6000CE010E94D9000E9466010E941C011982D8
:100B700018821A821C821B821D8262E070E0CE0104
:100B80000E94D90082ED87BD99E288E10FB6F89402
:100B9000A895809360000FBE90936000DF91CF9185
:100BA00008950E94780510E001EDFF24FA943EE1DB
:100BB000E32EC0E0D4E080911603882321F0009357
:100BC000BC000C94003E80911503813079F5489B60
:100BD0000AC080910E0390910F03019690930F032A
:100BE00080930E0310C010920F0310920E03109208
:100BF0002403109223031092250361E070E083E246
:100C000093E00E94D90080910E0390910F038131EF
:100C1000974260F0F0922403F09223031092250390
:100C200061E070E083E293E00E94D900499905C039
:100C3000809112038F5F8093120380911203893C8D
:100C400040F00093BC008AE20E943E021092120320
:100C50007894A895809132069091330683319A4713
:100C600048F12091200630912106E29EC001E39ECA
:100C7000900D112490932406809323061092210650
:100C80001092200610923306109232062091020331
:100C90002E3F81F48F39974018F087B58F5F87BD5D
:100CA00080912306909124068830974018F487B5E8
:100CB000815087BD80911703882321F00E941C0179
:100CC0001092170380911C03882359F0609114033C
:100CD00070E06F5F7F4F83E293E00E94D900109233
:100CE0001C039091030380910403981789F09032BC
:100CF00078F4981710F4815001C08F5F809304033B
:100D000088E50E94DF00809104038F710E94DF005C
:100D10001A3068F41F5F812F90E0FC013197EA30B0
:100D2000F10508F043C0E259FF4F0C946D0887E0CD
:100D30000E948A01909335068093340610E03BCFE1
:100D400086E00E948A0190931B0380931A0333CF9D
:100D500085E00E948A019093300680932F062BCF66
:100D600084E00E948A019093200380931F0323CF85
:100D700081E00E948A0190933706809336061BCF4C
:100D800080E00E948A0190932C0680932B0613CF5B
:100D90000E94C10190931903809318030CCF0E9405
:100DA000F80190931E0380931D0305CF89E00E94F4
:100DB0008A0190932606809325062091290630917A
:100DC0002A062817390720F490932A0680932906CB
:100DD00020912D0630912E068217930720F49093D0
:100DE0002E0680932D06809113038F5F809313034B
:100DF0008D3308F4E0CE6091290670912A06809127
:100E00002D0690912E06860F971F96958795681B45
:100E1000790B80E090E00E94530724EF3DEF44E31C
:100E20005FE30E94B9070E9424077093280660932D
:100E30002706D0932E06C0932D0610922A061092F4
:100E4000290610921303B7CE0E94980788F09F5787
:100E500098F0B92F9927B751B0F0E1F0660F771FDE
:100E6000881F991F1AF0BA95C9F714C0B13091F0D4
:100E70000E94B207B1E008950C94B207672F782F53
:100E80008827B85F39F0B93FCCF386957795679599
:100E9000B395D9F73EF490958095709561957F4F05
:100EA0008F4F9F4F0895E89409C097FB3EF49095AB
:100EB0008095709561957F4F8F4F9F4F9923A9F033
:100EC000F92F96E9BB279395F695879577956795C2
:100ED000B795F111F8CFFAF4BB0F11F460FF1BC006
:100EE0006F5F7F4F8F4F9F4F16C0882311F096E999
:100EF00011C0772321F09EE8872F762F05C0662347
:100F000071F096E8862F70E060E02AF09A95660FFF
:100F1000771F881FDAF7880F9695879597F90895B8
:100F200057FD9058440F551F59F05F3F71F047959A
:100F3000880F97FB991F61F09F3F79F0879508957F
:100F4000121613061406551FF2CF4695F1DF08C09E
:100F5000161617061806991FF1CF869571056105BB
:100F600008940895E894BB2766277727CB0197F963
:100F700008950E94CC070C943D080E942F0838F079
:100F80000E94360820F0952311F00C9426080C944A
:100F90002C0811240C94B3070E94900770F3959FBE
:100FA000C1F3950F50E0551F629FF001729FBB2760
:100FB000F00DB11D639FAA27F00DB11DAA1F649FFC
:100FC0006627B00DA11D661F829F2227B00DA11DAF
:100FD000621F739FB00DA11D621F839FA00D611D35
:100FE000221F749F3327A00D611D231F849F600D56
:100FF000211D822F762F6A2F11249F5750409AF07F
:10100000F1F088234AF0EE0FFF1FBB1F661F771F0A
:10101000881F91505040A9F79E3F510580F00C94D5
:1010200026080C94B3075F3FE4F3983ED4F386950B
:1010300077956795B795F795E7959F5FC1F7FE2B75
:10104000880F911D9695879597F9089597F99F6751
:1010500080E870E060E008959FEF80EC0895002440
:101060000A941616170618060906089500240A940D
:1010700012161306140605060895092E0394000C93
:1010800011F4882352F0BB0F40F4BF2B11F460FF22
:1010900004C06F5F7F4F8F4F9F4F0895052E97FBC2
:1010A0001EF400940E94650857FD07D00E94730843
:1010B00007FC03D04EF40C9465085095409530958C
:1010C00021953F4F4F4F5F4F0895909580957095B4
:1010D00061957F4F8F4F9F4F0895EE0FFF1F059033
:1010E000F491E02D0994A1E21A2EAA1BBB1BFD016D
:1010F0000DC0AA1FBB1FEE1FFF1FA217B307E407F7
:10110000F50720F0A21BB30BE40BF50B661F771F4E
:10111000881F991F1A9469F760957095809590952E
:101120009B01AC01BD01CF0108950F931F93CF9395
:10113000DF938230910510F482E090E0E0913A066E
:10114000F0913B0620E030E0A0E0B0E0309719F1EC
:10115000408151810281138148175907C8F08417D3
:10116000950769F4109731F012960C931297139625
:101170001C9327C000933A0610933B0622C021150A
:10118000310519F04217530718F49A01BD01EF0118
:10119000DF01F801DBCF21153105F9F0281B390BF0
:1011A0002430310580F48A819B816115710521F01D
:1011B000FB019383828304C090933B0680933A069D
:1011C000FE01329644C0FE01E20FF31F819391931A
:1011D00022503109398328833AC020913806309152
:1011E0003906232B41F420910A0330910B033093ED
:1011F0003906209338062091080330910903211500
:10120000310541F42DB73EB740910C0350910D03C9
:10121000241B350BE0913806F0913906E217F307ED
:10122000A0F42E1B3F0B2817390778F0AC014E5F56
:101230005F4F2417350748F04E0F5F1F5093390654
:10124000409338068193919302C0E0E0F0E0CF0133
:10125000DF91CF911F910F910895CF93DF93009766
:1012600009F481C0FC01329713821282A0913A06E0
:10127000B0913B06109781F420813181820F931F3A
:1012800020913806309139062817390751F5F09327
:101290003906E093380667C0ED0120E030E0CE1754
:1012A000DF0740F44A815B819E0141155105F1F051
:1012B000EA01F5CFD383C28340815181840F951F0A
:1012C000C817D90759F488819981840F951F029610
:1012D000918380838A819B81938382832115310549
:1012E00029F4F0933B06E0933A063DC0E901FB8305
:1012F000EA8349915991C40FD51FEC17FD0761F49A
:1013000080819181840F951F0296E90199838883DA
:10131000828193819B838A83E0E0F0E012968D9135
:101320009C911397009719F0FD01DC01F7CF8D9187
:101330009C9111979D012E5F3F4F820F931F20912B
:101340003806309139062817390769F4309729F49F
:1013500010923B0610923A0602C013821282B0939A
:101360003906A0933806DF91CF910895F894FFCF06
:10137000FF00FF01980106010401010108001001AE
:10138000210009013000020131000001400010017C
:1013900041005501420002014300090144000701D8
:1013A00050007801510078015200000153006D0196
:1013B0006000070161000001620008016300000194
:1013C000A0000001A1000701A2000C01A3000B0175
:1013D000A4000301A5000701A6000601A70004015F
:1013E000A8000801A9000C01AA001301AB00060126
:1013F000AC000D01AD001901AE001001AF000001FD
:10140000C0000001C1000701C2000C01C3000B01B4
:10141000C4000301C5000701C6000701C70004019D
:10142000C8000801C9000C01CA001301CB00060165
:10143000CC000D01CD001801CE001001CF0000013D
:10144000FF00FF01980106010401060100002001D0
:1014500001000A0102000001030000010400010173
:1014600005000101060098010700060108000101BE
:10147000090080010A0000010B0000010C000101BD
:101480000D0001010E0000010F0000011000F0012D
:101490001100F40112000101130000011400000109
:1014A0001500C00116000801170000011800000116
:1014B000190000011A0000011B0000011C000001BE
:1014C0001D0000012000010121002301220045012F
:1014D00023006701240001012500230126004501A6
:1014E00027006701300011013100110132000001B5
:1014F0003300EE013400FF013500BB013600AA01C4
:101500003700DD013800CC01390066013A0077016F
:101510003B0022013C0022013D0022013E0022014D
:101520003F0022014000220152001001530010012F
:10153000FF00FF01980106010401070118001D01C9
:1015400017002201020077012600B201E1007901B3
:10155000FF00FF0198010601040100013A0060014B
:101560003500000111000001FFFF290013000001F8
:0E157000FFFFFE1F1FFF01FF00003C062000D2
:00000001FF
