:100000000C9475000C9492000C9492000C94920045
:100010000C9492000C9492000C9492000C94920018
:100020000C9492000C943B020C9492000C9492005D
:100030000C9492000C9492000C9492000C949200F8
:100040000C9492000C9492000C9492000C949200E8
:100050000C9492000C9492000C9492000C94550213
:100060000C9492000C9492000C9492000C949200C8
:100070000C9492000C9492000C9492000C949200B8
:100080000C9492000C9492000C9492000C949200A8
:100090000C946C020C9492000C9492000C949200BC
:1000A0000C9492000C9492000C949200B602BB0245
:1000B000C002C502CA02CF02D4028603D902DE0200
:1000C000E302E8028603860386038603860386032B
:1000D00086038603EB024E05560584055E0566051C
:1000E00084056E05760584057D0511241FBECFEFBE
:1000F000DAE0DEBFCDBF13E0A0E0B1E0ECECF0E170
:1001000002C005900D92AA30B107D9F723E0AAE00A
:10011000B3E001C01D92A833B207E1F70E94BA0410
:100120000C9464080C940000862798E067E0880F20
:1001300008F486279A95D9F708952AB1242B2AB96D
:100140002BB1342F309523233BB1432B3FB7F89489
:10015000FC01680F791FE617F707C1F0819198E05D
:100160004BB9000000C087FF2BB9880F000000C00A
:1001700000C000C02BB900C000C000C000C000C05B
:1001800000C000C000C09A9559F7E5CF3FBF089561
:100190009B01220F331F620F731F0E949D008FEA85
:1001A00094E00197F1F700C00000089540E20C943C
:1001B000C80040E20C949D0027E030E090E05C989D
:1001C000EFE8F1E03197F1F700C00000AC01022E3A
:1001D00002C0559547950A94E2F7BA0161707727F6
:1001E00040FD06C0EFE8F1E03197F1F700C00000F4
:1001F0005C9AEFE8F1E03197F1F700C00000672B5F
:1002000031F0EFE8F1E03197F1F700C00000215044
:100210003109A8F65C988FE891E00197F1F700C0EA
:1002200000005C9AEFE8F1E03197F1F700C00000C0
:1002300008955C988FED9EE20197F1F700C00000F1
:100240005C9A8FED91E00197F1F700C000005C9897
:100250008FEC97E00197F1F700C000005C9A9AE1FB
:100260009A95F1F700C00895AC015C98E1E0F0E0E8
:100270002A9895B18FEF860F9F0102C0220F331F7E
:100280008A95E2F724233523232B11F420E001C0C3
:1002900024E0922B95B929988FE891E00197F1F726
:1002A00000C00000299A8FE891E00197F1F700C0A3
:1002B00000006150E9F62A985C9A0895CF93DF9385
:1002C000C0E0D1E0899199918F3F2FEF920751F4CF
:1002D0008FEF9BED25E0815090402040E1F700C07A
:1002E000000003C069E00E94340183E0C430D807F5
:1002F00049F7DF91CF91089590917A00976090939C
:100300007A0090E490937B0090937C00883028F0F2
:10031000885090917B00906203C090917B009F7DFC
:1003200090937B0090917C008770892B80937C0058
:1003300080917A00806880937A008FE39FE1019733
:10034000F1F700C0000080917A00806480937A0009
:1003500080917A0086FDFCCF809178002091790011
:1003600090E0922B08958EE580937C0080917A0036
:10037000806880937A0080917B008F7D80937B00E2
:100380008FE39FE10197F1F700C0000080917A00B0
:10039000806480937A0080917A0086FDFCCF809102
:1003A0007A00806480937A0080917A0086FDFCCF89
:1003B000209178008091790030E0382B032E000CDA
:1003C000440B550B64EB7BE281E190E00E94FC065C
:1003D000C901089587EC80937C0080E280937B00C4
:1003E00080917A00877D80937A0080917A0080687E
:1003F00080937A008FE39FE10197F1F700C000003E
:1004000080917A00806480937A0080917A0086FDE2
:10041000FCCF80917A00806480937A0080917A008A
:1004200086FDFCCF809178002091790090E0922B9E
:100430000895CF93DF9300D0CDB7DEB7209134037A
:10044000309135032115310511F428E333E0CE0155
:100450000196821B930B0F900F90DF91CF9108951F
:10046000F894880F8093BA0085EC8093BC008FEFDE
:100470008093170308951F920F920FB60F921124C5
:100480008F939F9378941C9909C080911C0390913D
:100490001D03019690931D0380931C039F918F91E0
:1004A0000F900FBE0F901F9018951F920F920FB6CE
:1004B0000F9211248F939F9380912E0390912F037D
:1004C000019690932F0380932E039F918F910F900D
:1004D0000FBE0F901F9018951F920F920FB60F929C
:1004E00011242F933F934F935F936F937F938F9339
:1004F0009F93AF93BF93EF93FF938091B900887F51
:100500008038A9F068F4882309F4C6C1803609F060
:10051000C5C185EC8093BC008FEF80931703C1C1E8
:10052000883A09F406C1883B09F403C1B7C1809138
:1005300017038F3F09F058C06091BB00609303031D
:1005400080E00E9494008093180310921703109289
:100550000C03E09103038E2F90E08531910508F0A4
:10056000D5C0FC01EA5AFF4F0C941B078091300361
:100570009091310334C080911003909111032FC0EA
:1005800080912B0390912C032AC0809115039091A8
:10059000160325C0809132039091330320C08091CF
:1005A0002703909128031BC080912103909122037F
:1005B00016C080911F039091200311C080910E03FB
:1005C00090910F030CC0809113039091140307C006
:1005D0000E94190204C080912303909124039093F8
:1005E0000B0380930A0392C081110DC08091BB0060
:1005F00080931E036091BB00809118030E949400B9
:10060000809318037EC09091BB002091180329139A
:1006100073C0813009F070C080910303873829F4DA
:1006200080911E03809301036CC08D3841F480914A
:100630001E038F3F11F4469A64C0469862C08E38FC
:1006400041F480911E038F3F11F45F9A5AC05F9866
:1006500058C08F3841F480911E038F3F11F42E9AB9
:1006600050C02E984EC0803941F480911E038F3FB8
:1006700011F4479A46C0479844C0813941F48091AB
:100680001E038F3F11F4729A3CC072983AC08239AF
:1006900089F480911E038F3F11F42D9A32C081306E
:1006A00029F42D9A82E080931E032BC02D9810927E
:1006B0001E0327C0833941F480911E0387BD8091BA
:1006C0001E03809300031DC0843929F480911E030A
:1006D00080931A030DC0853929F480911E038093FD
:1006E000190306C0863941F480911E0380931B03D1
:1006F00081E08093120305C080910C038F5F80938B
:100700000C03809117038F5F8093170385EC809310
:10071000BC0080910303823909F0C3C080911E039D
:10072000823009F0BEC085E88A95F1F700002D9867
:10073000B8C000C000C00000809103038F3009F4EE
:1007400068C078F4909117038C3030F4883028F525
:10075000873008F04FC021C08D3009F450C068F1D7
:1007600053C0833109F47BC040F490911703813169
:1007700009F45BC008F454C066C0873841F018F42F
:10078000843159F080C08D588A3008F07CC0809147
:1007900018038093BB008FEF1CC080911703811159
:1007A00003C080910A030DC0813019F480910B03BE
:1007B00008C0823009F05EC05AC091110DC080910E
:1007C0001A038093BB006091BB00809118030E94C4
:1007D0009400809318035AC0913019F48091190342
:1007E000F0CF923019F480911B03EBCF933009F0D6
:1007F00041C03DC0911130C080910203E2CF911100
:100800002BC0369B26C023C0911126C04F9B21C010
:100810001EC080911703811128C01E9B1AC017C0EB
:1008200091111AC0379B15C012C0911103C0629B71
:1008300010C00DC09130D9F08FEF8093BB008EEFC8
:10084000809317031AC0911107C01D9B02C08FEF40
:10085000B8CF1092BB00B7CF913061F408C080913F
:100860001703811102C087B5ACCF813019F4809194
:1008700018030AC08FEF8093BB0080910C038F5F39
:1008800080930C0303C08FEF8093BB00809117030C
:100890008F5F8093170302C085ED01C085EC8093C4
:1008A000BC00FF91EF91BF91AF919F918F917F918C
:1008B0006F915F914F913F912F910F900FBE0F90CD
:1008C0001F901895CF93DF9310BA88EF8AB91BB8A1
:1008D0001DB86A9A86EE84B980EC87B917BC81E0AE
:1008E00085BD83E884BDEEE6F0E080818160808391
:1008F00090E080E80FB6F8948093610090936100D7
:100900000FBE8AE20E943002E8E6F0E0808181605A
:100910008083EBE6F0E08081806180837894C9E198
:10092000D3E08FEF898388838A8361E070E0CE0112
:100930000E94D6000E945E010E941901198218824D
:100940001A8261E070E0CE010E94D60082ED87BD80
:1009500099E288E10FB6F894A895809360000FBEE5
:1009600090936000109202038FE180930103DF9166
:10097000CF9108950E94620410E001ED3EE1F32E54
:10098000C0E0D4E0499905C080910C038F5F80934B
:100990000C0380910C03833340F00093BC008AE287
:1009A0000E94300210920C037894A89580912E0337
:1009B00090912F0383319A4748F120911C03309185
:1009C0001D03F29EC001F39E900D1124909320030D
:1009D00080931F0310921D0310921C0310922F038B
:1009E00010922E03209100032E3F81F48F399740FF
:1009F00018F087B58F5F87BD80911F03909120030A
:100A00008830974018F487B5815087BD80911203D4
:100A1000882341F061E070E089E193E00E94D60014
:100A20001092120390910103903200F5809102031D
:100A3000981758F481508093020388E50E94DC00E7
:100A4000809102038F710E94DC00809102039091DB
:100A50000103891758F48F5F8093020388E50E9491
:100A6000DC00809102038F710E94DC001A3068F470
:100A70001F5F812F90E0FC013197EA30F10508F00B
:100A800043C0E559FF4F0C941B0787E00E947C018F
:100A9000909331038093300310E074CF86E00E947E
:100AA0007C0190931103809310036CCF85E00E942A
:100AB0007C0190932C0380932B0364CF84E00E94ED
:100AC0007C0190931603809315035CCF81E00E9414
:100AD0007C01909333038093320354CF80E00E94D3
:100AE0007C0190932803809327034CCF0E94B3018D
:100AF00090930F0380930E0345CF0E94EA019093D9
:100B00001403809313033ECF89E00E947C019093ED
:100B10002203809321032091250330912603281777
:100B2000390720F49093260380932503209129030D
:100B300030912A038217930720F490932A0380931D
:100B4000290380910D038F5F80930D038D3308F48B
:100B500019CF60912503709126038091290390910C
:100B60002A03860F971F96958795681B790B80E05F
:100B700090E00E94010624EF3DEF44E35FE30E9412
:100B800067060E94D2057093240360932303D093D9
:100B90002A03C09329031092260310922503109272
:100BA0000D03F0CE0E94460688F09F5798F0B92FAB
:100BB0009927B751B0F0E1F0660F771F881F991F92
:100BC0001AF0BA95C9F714C0B13091F00E946006CE
:100BD000B1E008950C946006672F782F8827B85FDE
:100BE00039F0B93FCCF3869577956795B395D9F7EA
:100BF0003EF490958095709561957F4F8F4F9F4FF4
:100C00000895E89409C097FB3EF4909580957095FF
:100C100061957F4F8F4F9F4F9923A9F0F92F96E948
:100C2000BB279395F695879577956795B795F111BD
:100C3000F8CFFAF4BB0F11F460FF1BC06F5F7F4F5A
:100C40008F4F9F4F16C0882311F096E911C077236C
:100C500021F09EE8872F762F05C0662371F096E875
:100C6000862F70E060E02AF09A95660F771F881F44
:100C7000DAF7880F9695879597F9089557FD90585C
:100C8000440F551F59F05F3F71F04795880F97FB50
:100C9000991F61F09F3F79F087950895121613060A
:100CA0001406551FF2CF4695F1DF08C01616170639
:100CB0001806991FF1CF869571056105089408956E
:100CC000E894BB2766277727CB0197F908950E9400
:100CD0007A060C94EB060E94DD0638F00E94E406CA
:100CE00020F0952311F00C94D4060C94DA0611240C
:100CF0000C9461060E943E0670F3959FC1F3950F18
:100D000050E0551F629FF001729FBB27F00DB11D8F
:100D1000639FAA27F00DB11DAA1F649F6627B00D1F
:100D2000A11D661F829F2227B00DA11D621F739F08
:100D3000B00DA11D621F839FA00D611D221F749F16
:100D40003327A00D611D231F849F600D211D822F5D
:100D5000762F6A2F11249F5750409AF0F1F0882384
:100D60004AF0EE0FFF1FBB1F661F771F881F9150B1
:100D70005040A9F79E3F510580F00C94D4060C9486
:100D800061065F3FE4F3983ED4F3869577956795C7
:100D9000B795F795E7959F5FC1F7FE2B880F911DDB
:100DA0009695879597F9089597F99F6780E870E081
:100DB00060E008959FEF80EC089500240A941616D1
:100DC000170618060906089500240A941216130639
:100DD000140605060895092E0394000C11F48823C7
:100DE00052F0BB0F40F4BF2B11F460FF04C06F5FE3
:100DF0007F4F8F4F9F4F0895052E97FB1EF4009451
:100E00000E94130757FD07D00E94210707FC03D05B
:100E10004EF40C94130750954095309521953F4F13
:100E20004F4F5F4F089590958095709561957F4FD6
:100E30008F4F9F4F0895EE0FFF1F0590F491E02D07
:100E40000994A1E21A2EAA1BBB1BFD010DC0AA1F0B
:100E5000BB1FEE1FFF1FA217B307E407F50720F023
:100E6000A21BB30BE40BF50B661F771F881F991F9E
:100E70001A9469F760957095809590959B01AC01E7
:100E8000BD01CF0108950F931F93CF93DF9382305D
:100E9000910510F482E090E0E0913603F091370381
:100EA00020E030E0A0E0B0E0309719F140815181BE
:100EB0000281138148175907C8F08417950769F410
:100EC000109731F012960C93129713961C9327C02B
:100ED000009336031093370322C02115310519F012
:100EE0004217530718F49A01BD01EF01DF01F80121
:100EF000DBCF21153105F9F0281B390B24303105E2
:100F000080F48A819B816115710521F0FB01938337
:100F1000828304C09093370380933603FE01329698
:100F200044C0FE01E20FF31F8193919322503109D7
:100F3000398328833AC02091340330913503232B21
:100F400041F4209106033091070330933503209339
:100F5000340320910403309105032115310541F438
:100F60002DB73EB74091080350910903241B350B60
:100F7000E0913403F0913503E217F307A0F42E1B40
:100F80003F0B2817390778F0AC014E5F5F4F2417ED
:100F9000350748F04E0F5F1F5093350340933403DD
:100FA0008193919302C0E0E0F0E0CF01DF91CF9117
:100FB0001F910F910895CF93DF93009709F481C09B
:100FC000FC01329713821282A0913603B09137034D
:100FD000109781F420813181820F931F2091340377
:100FE000309135032817390751F5F0933503E09315
:100FF000340367C0ED0120E030E0CE17DF0740F496
:101000004A815B819E0141155105F1F0EA01F5CF5E
:10101000D383C28340815181840F951FC817D9079C
:1010200059F488819981840F951F0296918380835A
:101030008A819B81938382832115310529F4F09362
:101040003703E09336033DC0E901FB83EA8349910E
:101050005991C40FD51FEC17FD0761F48081918170
:10106000840F951F0296E901998388838281938179
:101070009B838A83E0E0F0E012968D919C91139718
:10108000009719F0FD01DC01F7CF8D919C9111972C
:101090009D012E5F3F4F820F931F209134033091AB
:1010A00035032817390769F4309729F4109237036C
:1010B0001092360302C013821282B0933503A093BC
:0C10C0003403DF91CF910895F894FFCF26
:1010CC00FF00FF0198010601040101010800100155
:1010DC002100090130000201310000014000100123
:1010EC00410055014200020143000901440007017F
:1010FC0050007801510078015200000153006D013D
:10110C00600007016100000162000801630000013A
:10111C00A0000001A1000701A2000C01A3000B011B
:10112C00A4000301A5000701A6000601A700040105
:10113C00A8000801A9000C01AA001301AB000601CC
:10114C00AC000D01AD001901AE001001AF000001A3
:10115C00C0000001C1000701C2000C01C3000B015B
:10116C00C4000301C5000701C6000701C700040144
:10117C00C8000801C9000C01CA001301CB0006010C
:10118C00CC000D01CD001801CE001001CF000001E4
:10119C00FF00FF0198010601040106010000200177
:1011AC0001000A010200000103000001040001011A
:1011BC000500010106009801070006010800010165
:1011CC00090080010A0000010B0000010C00010164
:1011DC000D0001010E0000010F0000011000F001D4
:1011EC001100F401120001011300000114000001B0
:1011FC001500C001160008011700000118000001BD
:10120C00190000011A0000011B0000011C00000164
:10121C001D000001200001012100230122004501D5
:10122C00230067012400010125002301260045014C
:10123C00270067013000110131001101320000015B
:10124C003300EE013400FF013500BB013600AA016A
:10125C003700DD013800CC01390066013A00770116
:10126C003B0022013C0022013D0022013E002201F4
:10127C003F002201400022015200100153001001D6
:10128C00FF00FF01980106010401070118001D0170
:10129C0017002201020077012600B201E10079015A
:1012AC00FF00FF0198010601040100013A006001F2
:1012BC003500000111000001FFFF29000001FFFFB4
:0A12CC00FE1F1FFF00003803200082
:00000001FF
